{
  "contractName": "Catcontract",
  "abi": [
    {
      "inputs": [
        {
          "internalType": "string",
          "name": "_name",
          "type": "string"
        },
        {
          "internalType": "string",
          "name": "_symbol",
          "type": "string"
        },
        {
          "internalType": "uint256",
          "name": "_maxCatsSupply",
          "type": "uint256"
        },
        {
          "internalType": "uint256",
          "name": "_CREATION_LIMIT_GEN0",
          "type": "uint256"
        }
      ],
      "stateMutability": "nonpayable",
      "type": "constructor"
    },
    {
      "anonymous": false,
      "inputs": [
        {
          "indexed": true,
          "internalType": "address",
          "name": "owner",
          "type": "address"
        },
        {
          "indexed": true,
          "internalType": "address",
          "name": "approved",
          "type": "address"
        },
        {
          "indexed": true,
          "internalType": "uint256",
          "name": "tokenId",
          "type": "uint256"
        }
      ],
      "name": "Approval",
      "type": "event"
    },
    {
      "anonymous": false,
      "inputs": [
        {
          "indexed": false,
          "internalType": "address",
          "name": "owner",
          "type": "address"
        },
        {
          "indexed": false,
          "internalType": "uint256",
          "name": "catId",
          "type": "uint256"
        },
        {
          "indexed": false,
          "internalType": "uint256",
          "name": "dadId",
          "type": "uint256"
        },
        {
          "indexed": false,
          "internalType": "uint256",
          "name": "mumId",
          "type": "uint256"
        },
        {
          "indexed": false,
          "internalType": "uint256",
          "name": "genes",
          "type": "uint256"
        }
      ],
      "name": "Birth",
      "type": "event"
    },
    {
      "anonymous": false,
      "inputs": [
        {
          "indexed": true,
          "internalType": "address",
          "name": "from",
          "type": "address"
        },
        {
          "indexed": true,
          "internalType": "address",
          "name": "to",
          "type": "address"
        },
        {
          "indexed": true,
          "internalType": "uint256",
          "name": "tokenId",
          "type": "uint256"
        }
      ],
      "name": "Transfer",
      "type": "event"
    },
    {
      "inputs": [],
      "name": "CREATION_LIMIT_GEN0",
      "outputs": [
        {
          "internalType": "uint256",
          "name": "",
          "type": "uint256"
        }
      ],
      "stateMutability": "view",
      "type": "function",
      "constant": true
    },
    {
      "inputs": [],
      "name": "CatsSupplyCount",
      "outputs": [
        {
          "internalType": "uint256",
          "name": "",
          "type": "uint256"
        }
      ],
      "stateMutability": "view",
      "type": "function",
      "constant": true
    },
    {
      "inputs": [],
      "name": "gen0Count",
      "outputs": [
        {
          "internalType": "uint256",
          "name": "",
          "type": "uint256"
        }
      ],
      "stateMutability": "view",
      "type": "function",
      "constant": true
    },
    {
      "inputs": [],
      "name": "maxCatsSupply",
      "outputs": [
        {
          "internalType": "uint256",
          "name": "",
          "type": "uint256"
        }
      ],
      "stateMutability": "view",
      "type": "function",
      "constant": true
    },
    {
      "inputs": [],
      "name": "owner",
      "outputs": [
        {
          "internalType": "address",
          "name": "",
          "type": "address"
        }
      ],
      "stateMutability": "view",
      "type": "function",
      "constant": true
    },
    {
      "inputs": [],
      "name": "tokenName",
      "outputs": [
        {
          "internalType": "string",
          "name": "",
          "type": "string"
        }
      ],
      "stateMutability": "view",
      "type": "function",
      "constant": true
    },
    {
      "inputs": [],
      "name": "tokenSymbol",
      "outputs": [
        {
          "internalType": "string",
          "name": "",
          "type": "string"
        }
      ],
      "stateMutability": "view",
      "type": "function",
      "constant": true
    },
    {
      "inputs": [
        {
          "internalType": "address",
          "name": "newOwner",
          "type": "address"
        }
      ],
      "name": "transferOwnership",
      "outputs": [],
      "stateMutability": "nonpayable",
      "type": "function"
    },
    {
      "inputs": [
        {
          "internalType": "uint256",
          "name": "_genes",
          "type": "uint256"
        }
      ],
      "name": "createCatGen0",
      "outputs": [
        {
          "internalType": "uint256",
          "name": "",
          "type": "uint256"
        }
      ],
      "stateMutability": "nonpayable",
      "type": "function"
    },
    {
      "inputs": [
        {
          "internalType": "uint256",
          "name": "_catId",
          "type": "uint256"
        }
      ],
      "name": "getCatGenes",
      "outputs": [
        {
          "internalType": "uint256",
          "name": "generation",
          "type": "uint256"
        },
        {
          "internalType": "uint256",
          "name": "dadId",
          "type": "uint256"
        },
        {
          "internalType": "uint256",
          "name": "mumId",
          "type": "uint256"
        },
        {
          "internalType": "uint256",
          "name": "birthTime",
          "type": "uint256"
        },
        {
          "internalType": "uint256",
          "name": "genes",
          "type": "uint256"
        }
      ],
      "stateMutability": "view",
      "type": "function",
      "constant": true
    },
    {
      "inputs": [
        {
          "internalType": "address",
          "name": "owner",
          "type": "address"
        }
      ],
      "name": "balanceOf",
      "outputs": [
        {
          "internalType": "uint256",
          "name": "balance",
          "type": "uint256"
        }
      ],
      "stateMutability": "view",
      "type": "function",
      "constant": true
    },
    {
      "inputs": [],
      "name": "totalSupply",
      "outputs": [
        {
          "internalType": "uint256",
          "name": "total",
          "type": "uint256"
        }
      ],
      "stateMutability": "view",
      "type": "function",
      "constant": true
    },
    {
      "inputs": [],
      "name": "nowSupply",
      "outputs": [
        {
          "internalType": "uint256",
          "name": "",
          "type": "uint256"
        }
      ],
      "stateMutability": "nonpayable",
      "type": "function"
    },
    {
      "inputs": [],
      "name": "name",
      "outputs": [
        {
          "internalType": "string",
          "name": "_tokenName",
          "type": "string"
        }
      ],
      "stateMutability": "view",
      "type": "function",
      "constant": true
    },
    {
      "inputs": [],
      "name": "symbol",
      "outputs": [
        {
          "internalType": "string",
          "name": "_tokenSymbol",
          "type": "string"
        }
      ],
      "stateMutability": "view",
      "type": "function",
      "constant": true
    },
    {
      "inputs": [
        {
          "internalType": "uint256",
          "name": "_tokenId",
          "type": "uint256"
        }
      ],
      "name": "ownerOf",
      "outputs": [
        {
          "internalType": "address",
          "name": "_owner",
          "type": "address"
        }
      ],
      "stateMutability": "view",
      "type": "function",
      "constant": true
    },
    {
      "inputs": [
        {
          "internalType": "address",
          "name": "_to",
          "type": "address"
        },
        {
          "internalType": "uint256",
          "name": "_tokenId",
          "type": "uint256"
        }
      ],
      "name": "transfer",
      "outputs": [],
      "stateMutability": "nonpayable",
      "type": "function"
    }
  ],
  "bytecode": "0x608060405260006004553480156200001657600080fd5b50604051620019823803806200198283398181016040528101906200003c91906200020b565b336000806101000a81548173ffffffffffffffffffffffffffffffffffffffff021916908373ffffffffffffffffffffffffffffffffffffffff160217905550836005908051906020019062000094929190620000c6565b508260069080519060200190620000ad929190620000c6565b5081600181905550806003819055505050505062000463565b828054620000d4906200035a565b90600052602060002090601f016020900481019282620000f8576000855562000144565b82601f106200011357805160ff191683800117855562000144565b8280016001018555821562000144579182015b828111156200014357825182559160200191906001019062000126565b5b50905062000153919062000157565b5090565b5b808211156200017257600081600090555060010162000158565b5090565b60006200018d6200018784620002e4565b620002bb565b905082815260208101848484011115620001ac57620001ab62000429565b5b620001b984828562000324565b509392505050565b600082601f830112620001d957620001d862000424565b5b8151620001eb84826020860162000176565b91505092915050565b600081519050620002058162000449565b92915050565b6000806000806080858703121562000228576200022762000433565b5b600085015167ffffffffffffffff8111156200024957620002486200042e565b5b6200025787828801620001c1565b945050602085015167ffffffffffffffff8111156200027b576200027a6200042e565b5b6200028987828801620001c1565b93505060406200029c87828801620001f4565b9250506060620002af87828801620001f4565b91505092959194509250565b6000620002c7620002da565b9050620002d5828262000390565b919050565b6000604051905090565b600067ffffffffffffffff821115620003025762000301620003f5565b5b6200030d8262000438565b9050602081019050919050565b6000819050919050565b60005b838110156200034457808201518184015260208101905062000327565b8381111562000354576000848401525b50505050565b600060028204905060018216806200037357607f821691505b602082108114156200038a5762000389620003c6565b5b50919050565b6200039b8262000438565b810181811067ffffffffffffffff82111715620003bd57620003bc620003f5565b5b80604052505050565b7f4e487b7100000000000000000000000000000000000000000000000000000000600052602260045260246000fd5b7f4e487b7100000000000000000000000000000000000000000000000000000000600052604160045260246000fd5b600080fd5b600080fd5b600080fd5b600080fd5b6000601f19601f8301169050919050565b62000454816200031a565b81146200046057600080fd5b50565b61150f80620004736000396000f3fe608060405234801561001057600080fd5b506004361061010b5760003560e01c8063727bacb5116100a257806395d89b411161007157806395d89b41146102c4578063a9059cbb146102e2578063b30387a4146102fe578063b48343301461031c578063f2fde38b1461033a5761010b565b8063727bacb51461024c5780637b61c3201461026a5780637e66f15f146102885780638da5cb5b146102a65761010b565b8063427e1201116100de578063427e12011461019a5780636352211e146101ce5780636c02a931146101fe57806370a082311461021c5761010b565b806306fdde03146101105780630b433b901461012e57806312a55c961461014c57806318160ddd1461017c575b600080fd5b610118610356565b604051610125919061102c565b60405180910390f35b6101366103e8565b60405161014391906110ce565b60405180910390f35b61016660048036038101906101619190610eae565b6103ee565b60405161017391906110ce565b60405180910390f35b6101846104be565b60405161019191906110ce565b60405180910390f35b6101b460048036038101906101af9190610eae565b6104c8565b6040516101c59594939291906110e9565b60405180910390f35b6101e860048036038101906101e39190610eae565b6105fd565b6040516101f59190610fbe565b60405180910390f35b61020661063f565b604051610213919061102c565b60405180910390f35b61023660048036038101906102319190610e41565b6106cd565b60405161024391906110ce565b60405180910390f35b610254610716565b60405161026191906110ce565b60405180910390f35b61027261071c565b60405161027f919061102c565b60405180910390f35b6102906107aa565b60405161029d91906110ce565b60405180910390f35b6102ae6107c0565b6040516102bb9190610fbe565b60405180910390f35b6102cc6107e4565b6040516102d9919061102c565b60405180910390f35b6102fc60048036038101906102f79190610e6e565b610876565b005b610306610964565b60405161031391906110ce565b60405180910390f35b61032461096a565b60405161033191906110ce565b60405180910390f35b610354600480360381019061034f9190610e41565b610970565b005b60606005805461036590611251565b80601f016020809104026020016040519081016040528092919081815260200182805461039190611251565b80156103de5780601f106103b3576101008083540402835291602001916103de565b820191906000526020600020905b8154815290600101906020018083116103c157829003601f168201915b5050505050905090565b60015481565b60008060009054906101000a900473ffffffffffffffffffffffffffffffffffffffff1673ffffffffffffffffffffffffffffffffffffffff163373ffffffffffffffffffffffffffffffffffffffff161461047f576040517f08c379a00000000000000000000000000000000000000000000000000000000081526004016104769061104e565b60405180910390fd5b600154600254111561049057600080fd5b600460008154809291906104a390611283565b91905055506104b760008060008533610a7b565b9050919050565b6000600154905090565b6000806000806000600786815481106104e4576104e361132a565b5b906000526020600020906002020160000160009054906101000a900461ffff1661ffff1694506007868154811061051e5761051d61132a565b5b906000526020600020906002020160000160029054906101000a900463ffffffff1663ffffffff1693506007868154811061055c5761055b61132a565b5b906000526020600020906002020160000160069054906101000a900463ffffffff1663ffffffff1692506007868154811061059a5761059961132a565b5b9060005260206000209060020201600001600a9054906101000a900467ffffffffffffffff1667ffffffffffffffff169150600786815481106105e0576105df61132a565b5b906000526020600020906002020160010154905091939590929450565b6000806008600084815260200190815260200160002060009054906101000a900473ffffffffffffffffffffffffffffffffffffffff16905080915050919050565b6005805461064c90611251565b80601f016020809104026020016040519081016040528092919081815260200182805461067890611251565b80156106c55780601f1061069a576101008083540402835291602001916106c5565b820191906000526020600020905b8154815290600101906020018083116106a857829003601f168201915b505050505081565b6000600960008373ffffffffffffffffffffffffffffffffffffffff1673ffffffffffffffffffffffffffffffffffffffff168152602001908152602001600020549050919050565b60025481565b6006805461072990611251565b80601f016020809104026020016040519081016040528092919081815260200182805461075590611251565b80156107a25780601f10610777576101008083540402835291602001916107a2565b820191906000526020600020905b81548152906001019060200180831161078557829003601f168201915b505050505081565b6000600780549050600281905550600254905090565b60008054906101000a900473ffffffffffffffffffffffffffffffffffffffff1681565b6060600680546107f390611251565b80601f016020809104026020016040519081016040528092919081815260200182805461081f90611251565b801561086c5780601f106108415761010080835404028352916020019161086c565b820191906000526020600020905b81548152906001019060200180831161084f57829003601f168201915b5050505050905090565b600073ffffffffffffffffffffffffffffffffffffffff168273ffffffffffffffffffffffffffffffffffffffff1614156108e6576040517f08c379a00000000000000000000000000000000000000000000000000000000081526004016108dd9061106e565b60405180910390fd5b3073ffffffffffffffffffffffffffffffffffffffff168273ffffffffffffffffffffffffffffffffffffffff161415610955576040517f08c379a000000000000000000000000000000000000000000000000000000000815260040161094c9061108e565b60405180910390fd5b610960338383610c0c565b5050565b60045481565b60035481565b60008054906101000a900473ffffffffffffffffffffffffffffffffffffffff1673ffffffffffffffffffffffffffffffffffffffff163373ffffffffffffffffffffffffffffffffffffffff16146109fe576040517f08c379a00000000000000000000000000000000000000000000000000000000081526004016109f59061104e565b60405180910390fd5b600073ffffffffffffffffffffffffffffffffffffffff168173ffffffffffffffffffffffffffffffffffffffff161415610a3857600080fd5b806000806101000a81548173ffffffffffffffffffffffffffffffffffffffff021916908373ffffffffffffffffffffffffffffffffffffffff16021790555050565b6000806040518060a001604052808861ffff1681526020018763ffffffff1681526020018663ffffffff1681526020014267ffffffffffffffff16815260200185815250905060035460045410610ad157600080fd5b600781908060018154018082558091505060019003906000526020600020906002020160009091909190915060008201518160000160006101000a81548161ffff021916908361ffff16021790555060208201518160000160026101000a81548163ffffffff021916908363ffffffff16021790555060408201518160000160066101000a81548163ffffffff021916908363ffffffff160217905550606082015181600001600a6101000a81548167ffffffffffffffff021916908367ffffffffffffffff160217905550608082015181600101555050600060078054905090507f0a5311bd2a6608f08a180df2ee7c5946819a649b204b554bb8e39825b2c50ad58482898989604051610bea959493929190610fd9565b60405180910390a1610bfe60008583610c0c565b809250505095945050505050565b8273ffffffffffffffffffffffffffffffffffffffff16610c2c826105fd565b73ffffffffffffffffffffffffffffffffffffffff1614610c82576040517f08c379a0000000000000000000000000000000000000000000000000000000008152600401610c79906110ae565b60405180910390fd5b600073ffffffffffffffffffffffffffffffffffffffff168373ffffffffffffffffffffffffffffffffffffffff1614610d0e576001600960008573ffffffffffffffffffffffffffffffffffffffff1673ffffffffffffffffffffffffffffffffffffffff1681526020019081526020016000206000828254610d0691906111ae565b925050819055505b6001600960008473ffffffffffffffffffffffffffffffffffffffff1673ffffffffffffffffffffffffffffffffffffffff1681526020019081526020016000206000828254610d5e9190611158565b92505081905550816008600083815260200190815260200160002060006101000a81548173ffffffffffffffffffffffffffffffffffffffff021916908373ffffffffffffffffffffffffffffffffffffffff160217905550808273ffffffffffffffffffffffffffffffffffffffff168473ffffffffffffffffffffffffffffffffffffffff167fddf252ad1be2c89b69c2b068fc378daa952ba7f163c4a11628f55a4df523b3ef60405160405180910390a4505050565b600081359050610e26816114ab565b92915050565b600081359050610e3b816114c2565b92915050565b600060208284031215610e5757610e56611359565b5b6000610e6584828501610e17565b91505092915050565b60008060408385031215610e8557610e84611359565b5b6000610e9385828601610e17565b9250506020610ea485828601610e2c565b9150509250929050565b600060208284031215610ec457610ec3611359565b5b6000610ed284828501610e2c565b91505092915050565b610ee4816111e2565b82525050565b6000610ef58261113c565b610eff8185611147565b9350610f0f81856020860161121e565b610f188161135e565b840191505092915050565b6000610f30602e83611147565b9150610f3b8261136f565b604082019050919050565b6000610f53602483611147565b9150610f5e826113be565b604082019050919050565b6000610f76602883611147565b9150610f818261140d565b604082019050919050565b6000610f99602183611147565b9150610fa48261145c565b604082019050919050565b610fb881611214565b82525050565b6000602082019050610fd36000830184610edb565b92915050565b600060a082019050610fee6000830188610edb565b610ffb6020830187610faf565b6110086040830186610faf565b6110156060830185610faf565b6110226080830184610faf565b9695505050505050565b600060208201905081810360008301526110468184610eea565b905092915050565b6000602082019050818103600083015261106781610f23565b9050919050565b6000602082019050818103600083015261108781610f46565b9050919050565b600060208201905081810360008301526110a781610f69565b9050919050565b600060208201905081810360008301526110c781610f8c565b9050919050565b60006020820190506110e36000830184610faf565b92915050565b600060a0820190506110fe6000830188610faf565b61110b6020830187610faf565b6111186040830186610faf565b6111256060830185610faf565b6111326080830184610faf565b9695505050505050565b600081519050919050565b600082825260208201905092915050565b600061116382611214565b915061116e83611214565b9250827fffffffffffffffffffffffffffffffffffffffffffffffffffffffffffffffff038211156111a3576111a26112cc565b5b828201905092915050565b60006111b982611214565b91506111c483611214565b9250828210156111d7576111d66112cc565b5b828203905092915050565b60006111ed826111f4565b9050919050565b600073ffffffffffffffffffffffffffffffffffffffff82169050919050565b6000819050919050565b60005b8381101561123c578082015181840152602081019050611221565b8381111561124b576000848401525b50505050565b6000600282049050600182168061126957607f821691505b6020821081141561127d5761127c6112fb565b5b50919050565b600061128e82611214565b91507fffffffffffffffffffffffffffffffffffffffffffffffffffffffffffffffff8214156112c1576112c06112cc565b5b600182019050919050565b7f4e487b7100000000000000000000000000000000000000000000000000000000600052601160045260246000fd5b7f4e487b7100000000000000000000000000000000000000000000000000000000600052602260045260246000fd5b7f4e487b7100000000000000000000000000000000000000000000000000000000600052603260045260246000fd5b600080fd5b6000601f19601f8301169050919050565b7f596f7520617265206e6f7420656e7469746c656420746f20657865637574652060008201527f746869732066756e6374696f6e2e000000000000000000000000000000000000602082015250565b7f4552433732313a207472616e7366657220746f20746865207a65726f2061646460008201527f7265737300000000000000000000000000000000000000000000000000000000602082015250565b7f4552433732313a207472616e7366657220746f2074686520636f6e747261637460008201527f2061646472657373000000000000000000000000000000000000000000000000602082015250565b7f596f75277265206e6f7420746865206f776e6572206f6620746869732063617460008201527f2100000000000000000000000000000000000000000000000000000000000000602082015250565b6114b4816111e2565b81146114bf57600080fd5b50565b6114cb81611214565b81146114d657600080fd5b5056fea2646970667358221220242c01e83168416643a5f08b25e4e0f97dcef8ea0d5d68ea45956bed77ef9e7764736f6c63430008070033",
  "immutableReferences": {},
  "source": "// SPDX-License-Identifier: MIT\r\npragma solidity = 0.8.7;\r\n\r\nimport \"./IERC721.sol\";\r\nimport \"./Ownable.sol\";\r\n\r\ncontract Catcontract is  IERC721, Ownable {\r\n\r\n\r\n/*Storage:\r\n**********/\r\n\r\n    uint256 public maxCatsSupply; // Max cats supply\r\n    uint256 public CatsSupplyCount; // Actual cats supply\r\n\r\n    uint256 public CREATION_LIMIT_GEN0; // Max Gen0 cats\r\n    uint256 public gen0Count = 0; // Actual Gen0 cats\r\n    \r\n    string public tokenName; // Token name\r\n    string public tokenSymbol; // Token symbol\r\n    \r\n    struct Cat {\r\n        uint16 generation;\r\n        uint32 dadId;\r\n        uint32 mumId;\r\n        uint64 birthTime;\r\n        uint256 genes;\r\n    }\r\n\r\n    Cat[] cats; // Cat storage array\r\n    mapping(uint256 => address) private catOwner;  // Map from token ID to owner address\r\n    mapping(address => uint256) catTokenCount; //Map cats number by owner == get cats per address\r\n\r\n\r\n\r\n/*Events:\r\n*********/\r\n\r\n    event Birth(address owner, uint256 catId, uint256 dadId, uint256 mumId, uint256 genes);\r\n\r\n\r\n\r\n/*Constructor:\r\n**************/\r\n\r\n    constructor(string memory _name, string memory _symbol, uint256 _maxCatsSupply, uint256 _CREATION_LIMIT_GEN0) {\r\n            tokenName = _name;\r\n            tokenSymbol = _symbol;\r\n            maxCatsSupply = _maxCatsSupply;\r\n            CREATION_LIMIT_GEN0 = _CREATION_LIMIT_GEN0;\r\n        }\r\n\r\n\r\n\r\n/*Functions:\r\n************/\r\n\r\n    // Create Gen0 cats (to be placed in the constructor)\r\n    function createCatGen0 (uint256 _genes) public onlyOwner returns (uint256) {\r\n        require(CatsSupplyCount <= maxCatsSupply);\r\n\r\n        gen0Count++;\r\n        \r\n        return _creatKitty(0, 0, 0, _genes, msg.sender);   \r\n    }\r\n\r\n    // Create cats\r\n    function _creatKitty(uint256 _generation, uint256 _dadId, uint256 _mumId, uint256 _genes, address _owner) private returns(uint256) {\r\n        Cat memory _cat = Cat({\r\n            generation: uint16(_generation),\r\n            dadId: uint32(_dadId),\r\n            mumId:  uint32(_mumId),\r\n            birthTime: uint64(block.timestamp),\r\n            genes: _genes\r\n        });\r\n\r\n        require(gen0Count < CREATION_LIMIT_GEN0);\r\n        \r\n        cats.push(_cat);\r\n        uint256 newCatId = cats.length;\r\n\r\n        emit Birth(_owner, newCatId, _dadId, _mumId, _genes);\r\n        _transfer(address(0), _owner, newCatId);\r\n        return newCatId;\r\n    }\r\n    \r\n    //Get Cat genes per Id\r\n    function getCatGenes(uint256 _catId) external view returns (uint256 generation, uint256 dadId, uint256 mumId, uint256 birthTime, uint256 genes) {\r\n        generation = cats[_catId].generation;\r\n        dadId = cats[_catId].dadId; \r\n        mumId = cats[_catId].mumId; \r\n        birthTime = cats[_catId].birthTime;\r\n        genes = cats[_catId].genes;\r\n    }\r\n\r\n/*    \r\n    //Get Cat genes per Id\r\n    function getCatGenes(uint256 _catId) external view returns (uint256 generation, uint256 dadId, uint256 mumId, uint256 birthTime, uint256 genes) {\r\n        \r\n        Cat storage cat = cats[_catId]; // pointer to storage in order to save GAS\r\n\r\n        generation = uint256(cat.generation);\r\n        dadId = uint256(cat.dadId); \r\n        mumId = uint256(cat.mumId); \r\n        birthTime = uint256(cat.birthTime);\r\n        genes = uint256(cat.genes);\r\n    }\r\n*/\r\n\r\n    //Returns the number of tokens in ``owner``'s account\r\n    function balanceOf(address owner) external override view returns (uint256 balance) {\r\n        return catTokenCount[owner];\r\n    }\r\n\r\n    //Returns the max number of tokens in circulation\r\n    function totalSupply() external override view returns (uint256 total) {\r\n        return maxCatsSupply;\r\n    }\r\n\r\n    //Returns the actual number of tokens in circulation\r\n    function nowSupply() external returns (uint256) {\r\n        CatsSupplyCount = cats.length;\r\n        return CatsSupplyCount;\r\n    }\r\n\r\n    //Returns the name of the token\r\n    function name() external override view returns (string memory _tokenName) {\r\n        return tokenName;\r\n    }\r\n\r\n    //Returns the symbole of the token\r\n    function symbol() external override view returns (string memory _tokenSymbol) {\r\n        return tokenSymbol;\r\n    }\r\n\r\n    //Returns the owner of the `tokenId` token\r\n    function ownerOf(uint256 _tokenId) public view override returns (address _owner) {\r\n        address owner = catOwner[_tokenId];\r\n        //require(_owner != address(0), \"ERC721: owner query for nonexistent token\");\r\n        return owner;\r\n    }\r\n\r\n    //Transfers `tokenId` token from `msg.sender` to `to`.\r\n    function transfer(address _to, uint256 _tokenId) external override { \r\n        require(_to != address(0), \"ERC721: transfer to the zero address\");\r\n        require(_to != address(this), \"ERC721: transfer to the contract address\");\r\n\r\n        _transfer(msg.sender, _to, _tokenId);\r\n    }\r\n\r\n    function _transfer(address _from, address _to, uint256 _tokenId) internal {\r\n        require(ownerOf(_tokenId) == _from, \"You're not the owner of this cat!\");\r\n\r\n        if (_from != address(0)) {\r\n          catTokenCount[_from]  -= 1;\r\n        }\r\n        catTokenCount[_to] += 1;\r\n        catOwner[_tokenId] = _to;\r\n\r\n        emit Transfer(_from, _to, _tokenId);\r\n    }\r\n\r\n}",
  "sourcePath": "D:/Coding/Solidity/CryptoCats/blockchain/contracts/Catcontract.sol",
  "compiler": {
    "name": "solc",
    "version": "0.8.7+commit.e28d00a7.Emscripten.clang"
  },
  "schemaVersion": "3.3.4",
  "updatedAt": "2021-09-28T03:57:25.086Z",
  "networkType": "ethereum",
  "devdoc": {
    "kind": "dev",
    "methods": {
      "balanceOf(address)": {
        "details": "Returns the number of tokens in ``owner``'s account."
      }
    },
    "version": 1
  },
  "userdoc": {
    "kind": "user",
    "methods": {},
    "version": 1
  }
}